{
  "_format": "hh-sol-artifact-1",
  "contractName": "Voting",
  "sourceName": "contracts/Voting.sol",
  "abi": [
    {
      "inputs": [
        {
          "internalType": "bytes32[]",
          "name": "candidateNames",
          "type": "bytes32[]"
        }
      ],
      "stateMutability": "nonpayable",
      "type": "constructor"
    },
    {
      "inputs": [
        {
          "internalType": "bytes32",
          "name": "candidate",
          "type": "bytes32"
        }
      ],
      "name": "addVoteForCandidate",
      "outputs": [],
      "stateMutability": "nonpayable",
      "type": "function"
    },
    {
      "inputs": [
        {
          "internalType": "uint256",
          "name": "",
          "type": "uint256"
        }
      ],
      "name": "candidateList",
      "outputs": [
        {
          "internalType": "bytes32",
          "name": "",
          "type": "bytes32"
        }
      ],
      "stateMutability": "view",
      "type": "function"
    },
    {
      "inputs": [
        {
          "internalType": "bytes32",
          "name": "candidate",
          "type": "bytes32"
        }
      ],
      "name": "totalVotesFor",
      "outputs": [
        {
          "internalType": "uint256",
          "name": "",
          "type": "uint256"
        }
      ],
      "stateMutability": "view",
      "type": "function"
    },
    {
      "inputs": [
        {
          "internalType": "bytes32",
          "name": "candidate",
          "type": "bytes32"
        }
      ],
      "name": "validCandidate",
      "outputs": [
        {
          "internalType": "bool",
          "name": "",
          "type": "bool"
        }
      ],
      "stateMutability": "view",
      "type": "function"
    },
    {
      "inputs": [
        {
          "internalType": "bytes32",
          "name": "",
          "type": "bytes32"
        }
      ],
      "name": "votesReceived",
      "outputs": [
        {
          "internalType": "uint256",
          "name": "",
          "type": "uint256"
        }
      ],
      "stateMutability": "view",
      "type": "function"
    }
  ],
  "bytecode": "0x608060405234801561001057600080fd5b5060405162000783380380620007838339818101604052810190610034919061025e565b806001908051906020019061004a929190610051565b50506102a7565b82805482825590600052602060002090810192821561008d579160200282015b8281111561008c578251825591602001919060010190610071565b5b50905061009a919061009e565b5090565b5b808211156100b757600081600090555060010161009f565b5090565b6000604051905090565b600080fd5b600080fd5b600080fd5b6000601f19601f8301169050919050565b7f4e487b7100000000000000000000000000000000000000000000000000000000600052604160045260246000fd5b61011d826100d4565b810181811067ffffffffffffffff8211171561013c5761013b6100e5565b5b80604052505050565b600061014f6100bb565b905061015b8282610114565b919050565b600067ffffffffffffffff82111561017b5761017a6100e5565b5b602082029050602081019050919050565b600080fd5b6000819050919050565b6101a481610191565b81146101af57600080fd5b50565b6000815190506101c18161019b565b92915050565b60006101da6101d584610160565b610145565b905080838252602082019050602084028301858111156101fd576101fc61018c565b5b835b81811015610226578061021288826101b2565b8452602084019350506020810190506101ff565b5050509392505050565b600082601f830112610245576102446100cf565b5b81516102558482602086016101c7565b91505092915050565b600060208284031215610274576102736100c5565b5b600082015167ffffffffffffffff811115610292576102916100ca565b5b61029e84828501610230565b91505092915050565b6104cc80620002b76000396000f3fe608060405234801561001057600080fd5b50600436106100575760003560e01c80632f265cf71461005c578063392e66781461008c5780637021939f146100bc5780638a72fdfb146100ec578063b13c744b14610108575b600080fd5b6100766004803603810190610071919061027f565b610138565b60405161008391906102c5565b60405180910390f35b6100a660048036038101906100a1919061027f565b610166565b6040516100b391906102fb565b60405180910390f35b6100d660048036038101906100d1919061027f565b6101c9565b6040516100e391906102c5565b60405180910390f35b6101066004803603810190610101919061027f565b6101e1565b005b610122600480360381019061011d9190610342565b610220565b60405161012f919061037e565b60405180910390f35b600061014382610166565b61014c57600080fd5b600080838152602001908152602001600020549050919050565b600080600090505b6001805490508110156101be5782600182815481106101905761018f610399565b5b906000526020600020015414156101ab5760019150506101c4565b80806101b6906103f7565b91505061016e565b50600090505b919050565b60006020528060005260406000206000915090505481565b6101ea81610166565b6101f357600080fd5b600160008083815260200190815260200160002060008282546102169190610440565b9250508190555050565b6001818154811061023057600080fd5b906000526020600020016000915090505481565b600080fd5b6000819050919050565b61025c81610249565b811461026757600080fd5b50565b60008135905061027981610253565b92915050565b60006020828403121561029557610294610244565b5b60006102a38482850161026a565b91505092915050565b6000819050919050565b6102bf816102ac565b82525050565b60006020820190506102da60008301846102b6565b92915050565b60008115159050919050565b6102f5816102e0565b82525050565b600060208201905061031060008301846102ec565b92915050565b61031f816102ac565b811461032a57600080fd5b50565b60008135905061033c81610316565b92915050565b60006020828403121561035857610357610244565b5b60006103668482850161032d565b91505092915050565b61037881610249565b82525050565b6000602082019050610393600083018461036f565b92915050565b7f4e487b7100000000000000000000000000000000000000000000000000000000600052603260045260246000fd5b7f4e487b7100000000000000000000000000000000000000000000000000000000600052601160045260246000fd5b6000610402826102ac565b91507fffffffffffffffffffffffffffffffffffffffffffffffffffffffffffffffff821415610435576104346103c8565b5b600182019050919050565b600061044b826102ac565b9150610456836102ac565b9250827fffffffffffffffffffffffffffffffffffffffffffffffffffffffffffffffff0382111561048b5761048a6103c8565b5b82820190509291505056fea2646970667358221220af4a7da74dc8723f1329c5c4dd1519f7795706d0ae618cffb0264efb519914ea64736f6c63430008090033",
  "linkReferences": {},
  "deployedLinkReferences": {}
}